{
  "contractName": "VotingSystem",
  "abi": [
    {
      "inputs": [],
      "stateMutability": "nonpayable",
      "type": "constructor"
    },
    {
      "inputs": [],
      "name": "currentVoteSession",
      "outputs": [
        {
          "internalType": "uint256",
          "name": "",
          "type": "uint256"
        }
      ],
      "stateMutability": "view",
      "type": "function",
      "constant": true
    },
    {
      "inputs": [
        {
          "internalType": "address",
          "name": "",
          "type": "address"
        }
      ],
      "name": "lastVotedOn",
      "outputs": [
        {
          "internalType": "uint256",
          "name": "",
          "type": "uint256"
        }
      ],
      "stateMutability": "view",
      "type": "function",
      "constant": true
    },
    {
      "inputs": [],
      "name": "owner",
      "outputs": [
        {
          "internalType": "address",
          "name": "",
          "type": "address"
        }
      ],
      "stateMutability": "view",
      "type": "function",
      "constant": true
    },
    {
      "inputs": [
        {
          "internalType": "uint256",
          "name": "",
          "type": "uint256"
        }
      ],
      "name": "proposals",
      "outputs": [
        {
          "internalType": "string",
          "name": "name",
          "type": "string"
        },
        {
          "internalType": "uint256",
          "name": "voteCount",
          "type": "uint256"
        }
      ],
      "stateMutability": "view",
      "type": "function",
      "constant": true
    },
    {
      "inputs": [],
      "name": "votingActive",
      "outputs": [
        {
          "internalType": "bool",
          "name": "",
          "type": "bool"
        }
      ],
      "stateMutability": "view",
      "type": "function",
      "constant": true
    },
    {
      "inputs": [
        {
          "internalType": "string",
          "name": "proposalName",
          "type": "string"
        }
      ],
      "name": "addProposal",
      "outputs": [],
      "stateMutability": "nonpayable",
      "type": "function"
    },
    {
      "inputs": [
        {
          "internalType": "uint256",
          "name": "proposalIndex",
          "type": "uint256"
        }
      ],
      "name": "vote",
      "outputs": [],
      "stateMutability": "nonpayable",
      "type": "function"
    },
    {
      "inputs": [],
      "name": "endVoting",
      "outputs": [],
      "stateMutability": "nonpayable",
      "type": "function"
    },
    {
      "inputs": [],
      "name": "getWinner",
      "outputs": [
        {
          "internalType": "string",
          "name": "winnerName",
          "type": "string"
        },
        {
          "internalType": "uint256",
          "name": "winnerVoteCount",
          "type": "uint256"
        }
      ],
      "stateMutability": "view",
      "type": "function",
      "constant": true
    },
    {
      "inputs": [],
      "name": "resetVoting",
      "outputs": [],
      "stateMutability": "nonpayable",
      "type": "function"
    }
  ],
  "bytecode": "0x60806040526000600255348015601457600080fd5b50600080546001600160a01b031916331790556004805460ff191660011790556109e2806100436000396000f3fe608060405234801561001057600080fd5b506004361061009e5760003560e01c8063856e698c11610066578063856e698c146101405780638da5cb5b146101485780638e7ea5b214610173578063c3403ddf1461017b578063db8356971461018357600080fd5b80630121b93f146100a3578063013cf08b146100b85780632fdae3c5146100e2578063408e2727146100f5578063491a1d6914610112575b600080fd5b6100b66100b1366004610652565b61018c565b005b6100cb6100c6366004610652565b6102a0565b6040516100d992919061066b565b60405180910390f35b6100b66100f03660046106d6565b61035c565b6004546101029060ff1681565b60405190151581526020016100d9565b61013261012036600461078f565b60016020526000908152604090205481565b6040519081526020016100d9565b6100b66103ee565b60005461015b906001600160a01b031681565b6040516001600160a01b0390911681526020016100d9565b6100cb61047d565b6100b661061c565b61013260025481565b60045460ff166101db5760405162461bcd60e51b81526020600482015260156024820152742b37ba34b7339034b9903737ba1030b1ba34bb329760591b60448201526064015b60405180910390fd5b600254336000908152600160205260409020540361024b5760405162461bcd60e51b815260206004820152602760248201527f596f75206861766520616c726561647920766f74656420696e2074686973207360448201526632b9b9b4b7b71760c91b60648201526084016101d2565b600254336000908152600160208190526040909120919091556003805483908110610278576102786107bf565b9060005260206000209060020201600101600082825461029891906107eb565b909155505050565b600381815481106102b057600080fd5b90600052602060002090600202016000915090508060000180546102d390610804565b80601f01602080910402602001604051908101604052809291908181526020018280546102ff90610804565b801561034c5780601f106103215761010080835404028352916020019161034c565b820191906000526020600020905b81548152906001019060200180831161032f57829003601f168201915b5050505050908060010154905082565b6000546001600160a01b031633146103865760405162461bcd60e51b81526004016101d29061083e565b60408051808201909152818152600060208201819052600380546001810182559152815160029091027fc2575a0e9e593c00f959f8c92f12db2869c3395a3b0502d05e2516446f71f85b019081906103de90826108d4565b5060208201518160010155505050565b6000546001600160a01b031633146104185760405162461bcd60e51b81526004016101d29061083e565b60005b6003548110156104585760006003828154811061043a5761043a6107bf565b6000918252602090912060016002909202018101919091550161041b565b506002805490600061046983610993565b90915550506004805460ff19166001179055565b60045460609060009060ff16156104d65760405162461bcd60e51b815260206004820152601760248201527f566f74696e67206973207374696c6c206163746976652e00000000000000000060448201526064016101d2565b6000805b6003548110156106165781600382815481106104f8576104f86107bf565b906000526020600020906002020160010154111561060e5760038181548110610523576105236107bf565b90600052602060002090600202016001015491506003818154811061054a5761054a6107bf565b9060005260206000209060020201600001805461056690610804565b80601f016020809104026020016040519081016040528092919081815260200182805461059290610804565b80156105df5780601f106105b4576101008083540402835291602001916105df565b820191906000526020600020905b8154815290600101906020018083116105c257829003601f168201915b50505050509350600381815481106105f9576105f96107bf565b90600052602060002090600202016001015492505b6001016104da565b50509091565b6000546001600160a01b031633146106465760405162461bcd60e51b81526004016101d29061083e565b6004805460ff19169055565b60006020828403121561066457600080fd5b5035919050565b604081526000835180604084015260005b81811015610699576020818701810151606086840101520161067c565b506000606082850101526060601f19601f8301168401019150508260208301529392505050565b634e487b7160e01b600052604160045260246000fd5b6000602082840312156106e857600080fd5b813567ffffffffffffffff8111156106ff57600080fd5b8201601f8101841361071057600080fd5b803567ffffffffffffffff81111561072a5761072a6106c0565b604051601f8201601f19908116603f0116810167ffffffffffffffff81118282101715610759576107596106c0565b60405281815282820160200186101561077157600080fd5b81602084016020830137600091810160200191909152949350505050565b6000602082840312156107a157600080fd5b81356001600160a01b03811681146107b857600080fd5b9392505050565b634e487b7160e01b600052603260045260246000fd5b634e487b7160e01b600052601160045260246000fd5b808201808211156107fe576107fe6107d5565b92915050565b600181811c9082168061081857607f821691505b60208210810361083857634e487b7160e01b600052602260045260246000fd5b50919050565b60208082526027908201527f4f6e6c7920746865206f776e65722063616e20706572666f726d20746869732060408201526630b1ba34b7b71760c91b606082015260800190565b601f8211156108cf57806000526020600020601f840160051c810160208510156108ac5750805b601f840160051c820191505b818110156108cc57600081556001016108b8565b50505b505050565b815167ffffffffffffffff8111156108ee576108ee6106c0565b610902816108fc8454610804565b84610885565b6020601f821160018114610936576000831561091e5750848201515b600019600385901b1c1916600184901b1784556108cc565b600084815260208120601f198516915b828110156109665787850151825560209485019460019092019101610946565b50848210156109845786840151600019600387901b60f8161c191681555b50505050600190811b01905550565b6000600182016109a5576109a56107d5565b506001019056fea264697066735822122006e52c486dd98ca4f8c6ae9e73953bc350c02f2121fe96bc0956f7f6400572c964736f6c634300081a0033",
  "immutableReferences": {},
  "source": "// SPDX-License-Identifier: MIT\npragma solidity ^0.8.0;\n\ncontract VotingSystem {\n    struct Proposal {\n        string name;\n        uint voteCount;\n    }\n\n    address public owner;\n    mapping(address => uint) public lastVotedOn;\n    uint public currentVoteSession = 0;\n    Proposal[] public proposals;\n    bool public votingActive;\n\n    constructor() {\n        owner = msg.sender;\n        votingActive = true;\n    }\n\n    modifier onlyOwner() {\n        require(msg.sender == owner, \"Only the owner can perform this action.\");\n        _;\n    }\n\n    modifier voteActive() {\n        require(votingActive, \"Voting is not active.\");\n        _;\n    }\n\n    function addProposal(string memory proposalName) public onlyOwner {\n        proposals.push(Proposal({\n            name: proposalName,\n            voteCount: 0\n        }));\n    }\n\n    function vote(uint proposalIndex) public voteActive {\n        require(lastVotedOn[msg.sender] != currentVoteSession, \"You have already voted in this session.\");\n        lastVotedOn[msg.sender] = currentVoteSession;\n        proposals[proposalIndex].voteCount += 1;\n    }\n\n    function endVoting() public onlyOwner {\n        votingActive = false;\n    }\n\n    function getWinner() public view returns (string memory winnerName, uint winnerVoteCount) {\n        require(!votingActive, \"Voting is still active.\");\n        uint winningVoteCount = 0;\n        for (uint i = 0; i < proposals.length; i++) {\n            if (proposals[i].voteCount > winningVoteCount) {\n                winningVoteCount = proposals[i].voteCount;\n                winnerName = proposals[i].name;\n                winnerVoteCount = proposals[i].voteCount;\n            }\n        }\n    }\n\n    // Reset the contract to start a new vote\n    function resetVoting() public onlyOwner {\n        for (uint i = 0; i < proposals.length; i++) {\n            proposals[i].voteCount = 0;\n        }\n        currentVoteSession++;\n        votingActive = true;\n    }\n}\n\n",
  "sourcePath": "/home/infare/smartcontracts/contracts/SmartVotes.sol",
  "compiler": {
    "name": "solc",
    "version": "0.8.26+commit.8a97fa7a.Emscripten.clang"
  },
  "schemaVersion": "3.4.16",
  "updatedAt": "2024-06-26T09:29:51.740Z",
  "networkType": "ethereum",
  "devdoc": {
    "kind": "dev",
    "methods": {},
    "version": 1
  },
  "userdoc": {
    "kind": "user",
    "methods": {},
    "version": 1
  }
}